:1000000002004400000080FBE490035E787C7905E8
:100010008002F0A3D8FCD9FA7A007B0390005378D1
:100020005F79018015E493A3AD82AE838A828B83CE
:10003000F0A3AA82AB838D828E83D8E9D9E71229F7
:10004000EA12000375D0007581BF75180075190399
:10005000020008000000001B0400004E080000B170
:100060000C0000641100008D160000611C00002CC3
:10007000230000622B0000C3350000A8430000BC31
:1000800057000038780000C6B70000A7730100FFD2
:10009000FFFFFF0100000000401C46000000000EB2
:1000A000000200000008000000FFFFFFFF00040046
:1000B00000C3E7960809E7960809E7960809E79656
:1000C00022080808E630E7111206C21200D9080813
:1000D00008C64480C618181822181818E9799EC650
:1000E00008CAC608CBC608CCC6C370207996CACB4E
:1000F000CC7019798ECBCC70137986CC700EF980C8
:100100002ACA33CACB33CBCC33CC331930E7F2CC49
:10011000CBCA3350147004EA30E00DE4CA3ACACBBB
:100120003BCBCC3CCC500209C3E913C6CC182313FB
:10013000C6CB18C6CA18C6F922E6261846184618AD
:100140004622E72719471947194722181818E608C1
:1001500046087009E626087005E633F422082219DD
:100160001919E70947097009E727097005E733F40A
:10017000220922E6084608C3134608336002E63324
:10018000F422E7094709C3134709336002E733F450
:1001900022120173601C120182601712013970076C
:1001A0001201427001D322C0D01201427006D0D099
:1001B000B322C32233D0D0501430E0F6C3E7960800
:1001C00009E7960809E7960809E796B32220E0D5E3
:1001D000E6970809E6970809E6970809E697B32223
:1001E000120173601B12018260161201397007122E
:1001F0000142600CB322C0D01201427005D0D0225F
:10020000C32233D0D0501330E0EBC3E7960809E7A0
:10021000960809E7960809E7962220E0E4E69708A1
:1002200009E6970809E6970809E697220012017384
:10023000604F1201826012E7548066F612014B7023
:1002400011120142703B090909F4F618F618F61864
:10025000F62212015F701512013908080860EAE6FB
:10026000447FF618768018E4F618F62212013960F9
:10027000161201427012E4F608F608F608E65480F9
:10028000F609090918181822EAC0E0EBC0E0ECC032
:10029000E0EDC0E0E687F0A4FBACF008E687F0A450
:1002A0002CFCE435F0FA1809E687F0A42C4B600228
:1002B0007401CA35F0FCE433FB09E687F0D2F7A4F9
:1002C0002CCB35F0FC1908E687F0A42BCC35F0FBDD
:1002D000E433FD0819E687F0D2E7A42C4ACB35F0C9
:1002E000CD3400FC09E687F0D2E7A42DCC35F0FD33
:1002F000E433FA0918E687F0D2F7A42CCD35F0CA1A
:100300003400FC08E687F0D2E7D2F7A42ACC35F017
:100310007A7E20E70B0ACB33CBCD33CDCC33CC3335
:10032000CB3350147004ED30E00ED2F1E4CD3DCD6E
:10033000CC3CCC3B5005DA05C2F1EB547FC6330808
:10034000E63392F0FBE73309E733C39A502D2B7065
:10035000190C0D4C4D70151806E608C333700D20AE
:10036000F10AA2F013F6E418800B4024E4F630F012
:1003700002768018F618F618F68024D33B14501035
:1003800074FFA2F013F6187680E418F618F6800FC2
:10039000A2F013F618E63303F618ECF618EDF6D0D3
:1003A000E0FDD0E0FCD0E0FBD0E0FA221201826058
:1003B00046120173603DE9687008F618F618F618E1
:1003C000F622748067F71203E0090909748067F761
:1003D00022120173601D1201827005191919801A09
:1003E00012014B701F12015FC37003E667331919C6
:1003F0001940071818182208080874FFF618F6188C
:10040000F618F62212015F6017120142702192F075
:100410001201397019501720F01408080809090949
:10042000E7F61819E7F61819E7F61819E7F6221291
:10043000013960E6E869701F0808E62480F608E4E0
:1004400036F618547FB47F0CE654806007F6E41843
:10045000F618F622181822E9C6CC08C6CD08C6CE72
:1004600008C6CFC0E0E8C0E0EAC0E0EBC0E009E9C0
:10047000F809E7FA09E7FBE6F918E6F8C3EC98EDA6
:1004800099EE9AEBC2E7F5F0EFC2E795F0500E60F7
:100490000CEBCFFBEACEFAE9CDF9E8CCF8EAA2E71B
:1004A000D2E7FAEB33FB13F5F0EEA2E7D2E7FEEF6B
:1004B00033FFC5F013A2E730E601B313C5F0C3C0A4
:1004C000E0C0F07F00C39BFB605E9418600F401D8E
:1004D00014601AD0E023F9D0E0F80205B28AF0E9FE
:1004E000486003D2F0E4AFF0FAF9F8803BEB30E477
:1004F0000D89F0EA6003D2F0E4AFF0F9CAF8EB300E
:10050000E30D88F0EF6002D2F0AFF0E4CAC9F8EB77
:1005100054076014FBC3EA13FAE913F9E813F8EF80
:10052000135002D2E0FFDBEDD0E0C0E030E739C38A
:10053000E49FFFF5F0EC98FC42F0ED99FD42F0EEFF
:100540009AFE42F0D0E0F9D0E0F8E5F0607AE923D5
:10055000F9EE20E742D8028067C3EF33FFEC33FCAB
:10056000ED33FDEE33FE80EAEC28FCED39FDEE3A8A
:10057000FED0E023F9D0E0F84002801BC3EE13FE6A
:10058000ED13FDEC13FCEF135002D2E0FF08B800AE
:10059000067F7F74FF802EEF3350178CF020F0021F
:1005A00060100CBC000C0DBD00080EBE000408E875
:1005B00060DFE933E813FFEE2313FE4F4D4C800854
:1005C000E95480FFE4FEFDFCEE33EF33F47004FCED
:1005D000FD7E80D0E0FBD0E0FAD0E0F8D0E0CFC6DE
:1005E00018CEC618CDC618CCC6F922E4CFC0E0E4B8
:1005F000CEC0E0E4CDC0E0E4CCC0E075F020E6265B
:10060000F608E633F608E633F608E633F618181867
:10061000EC33FCED33FDEE33FEEF33FFC3EC970913
:10062000ED9709EE9709EF97191919400FFFEC970D
:10063000FC09ED97FD09EE97FE191906D5F0BFEC00
:10064000F709EDF709EEF709EFF7191919D0E0FCF2
:10065000D0E0FDD0E0FED0E0FF221206C518181849
:100660001205EB1206B1191919221206B11919193E
:10067000080808E618181820E7E01205EB1206C56E
:1006800018181822090909E719191920E7DC0808C0
:1006900008E618181820E7030205EB1206C518181B
:1006A000181205EB1206C51818181206B1191919F7
:1006B00022E4C397F709E497F709E497F709E49769
:1006C000F722181818E4C396F608E496F608E4969C
:1006D000F608E496F622E026F608A3E036F608A32C
:1006E000E036F608A3E036F622E0F608A3E0F608C6
:1006F000A3E0F608A3E0F622E6F008A3E6F008A3DC
:10070000E6F008A3E6F022E0FAA3E0FBA3E0FCA3F6
:10071000E0FD22E0FCA3E0FDA3E0FEA3E0FF22E079
:10072000F8A3E0F9A3E0FAA3E0FB22E8F0A3E9F0E4
:10073000A3EAF0A3EBF022CAC0E0E6F0A308DAFADD
:10074000D0E0FA22CAC0E0E0A3C582CCC582C5834E
:10075000CDC583F0A3C582CCC582C583CDC583DA60
:10076000E6D0E0CA22600D08C6A2E713C618C61379
:10077000C6D5E0F322700422600D18C6C333C60844
:10078000C633C6D5E0F41822251810AF08F5184076
:100790000C15198008F51840021519D2AF2200C0B7
:1007A000D0251810AF08F518500C05198008F51859
:1007B00050020519D2AFD0D0222518F58210AF080B
:1007C000F518400C15198008F51840021519D2AF1C
:1007D000851983222518F582E43519F58322251819
:1007E000FAE43519FB222518FCE43519FD222518F9
:1007F000C582C0E0E51934FFC583C0E0E518C395A4
:100800008224F910AF0885831985821880088583B2
:1008100019858218D2AFCEF0A3E520F0A37808E6C0
:1008200008F0A3DEFAEFF0A3E58124FBF8E608F078
:10083000A3E608F0A30808E608F0A3E608F0A3156D
:10084000811581D0E0FED0E0F815811581E8C0E087
:10085000EEC0E022851983851882E0A3FEE0A3F5AF
:10086000207808E0A3F608DFFAE0A3FFE0A3C0E0E9
:10087000E0A3C0E0E0A3C0E0E0A3C0E010AF0885C3
:1008800082188583198008858218858319D2AFD094
:1008900083D082227404800474028000C0E0F404D7
:1008A0001207B9D0E0120737227404800474028062
:1008B00000CCC0E0EDC0E0E518C39CCCAD19500100
:1008C0001D10AF068C188D1980068C188D19D2AFAB
:1008D000120744D0E0FDD0E0FC2274F81207EE7459
:1008E000FF120788E9FEEAFFEE851882851983F07A
:1008F000EF6004D2968002C296C295900348120817
:10090000A99003401208A97C007D0074081207DE3C
:1009100012288B740812079ED295D2967401120782
:100920009E7F010208547903122882D296D295C282
:10093000977A647B00122A62D2977A647B00122A2B
:10094000627A0079AE1208DA7A0079001208DA7A4F
:100950000079101208DA7A0079401208DA7A007900
:10096000811208DA7A0079CF1208DA7A0079A112B6
:1009700008DA7A0079C81208DA7A0079A61208DA59
:100980007A0079A81208DA7A00793F1208DA7A0038
:1009900079D31208DA7A0079001208DA7A0079D568
:1009A0001208DA7A0079801208DA7A0079D9120806
:1009B000DA7A0079F11208DA7A0079DA1208DA7A4A
:1009C0000079121208DA7A0079DB1208DA7A0079F3
:1009D000401208DA7A0079201208DA7A00790012D7
:1009E00008DA7A00798D1208DA7A0079141208DAB6
:1009F0007A0079A41208DA7A0079A61208DA7A0065
:100A000079AF1208DA7A0079AF1208DA120A14798B
:100A10000002288274F81207EE74FF1207887E0025
:100A200074B02E851882851983120AD91208A990EC
:100A300003401208A97C007D0074081207DE12280A
:100A40008B740812079ED295D296851882851983D9
:100A5000E4120AD91208A99003401208A97C007D6B
:100A60000074081207DE12288B740812079E120AFF
:100A7000CD1208A99003401208A97C007D007408DB
:100A80001207DE12288B740812079ED295D2967F29
:100A900080851882851983E4F0D296C29590034828
:100AA0001208A99003401208A97C007D0074081266
:100AB00007DE12288B740812079ED295D296DFD1DA
:100AC0000EEEC394085003020A2002091CD295D2EC
:100AD000968518828519837410F0C296C29590038A
:100AE000482274E91207EE8B0974171207D47814A0
:100AF0001206E985140C85150D85160E85170F90C5
:100B0000035278101206E9780C79101206849003CB
:100B10005278101206E978147910120684E51075DF
:100B2000110075100178101207757407780C120700
:100B30007574D9250CF87403350DF9E82AF8E935F0
:100B400009F9741B1207D4120713EC4D4E4F6009BC
:100B500088828983E04510800AE510F4FA8882894A
:100B600083E05AF002151B74E91207EE8B0D74171F
:100B70001207D478101206E985100885110985122C
:100B80000A85130B90035278141206E97808791439
:100B9000120684E5147509007508017808120775B6
:100BA00090035278141206E97810791412068474AE
:100BB000077810120775120E412AF582E9350DF5F6
:100BC00083E0550860047A0180027A007B007C0093
:100BD0007D0002151B12288B740812079ED295D235
:100BE00096740112079ED083D08222C082C0837483
:100BF000FF1207887A0079B01208DA851882851901
:100C000083E4120AD91208A99003401208A97C00B3
:100C10007D0074081207DE12288B740812079E12DA
:100C20000ACD1208A99003401208A97C007D007427
:100C3000081207DE12288B740812079ED295D296EE
:100C4000D296C2959003481208A990035A1208A997
:100C50007C007D007AD97B03020BD5C082C083E47F
:100C60009003D9F87904F0A3D8FCD9FA120BEB025F
:100C70000BE6C082C083E49003D9F87904F0A3D8CE
:100C8000FCD9FA020BE674E91207EE74F212078837
:100C900074021207D4E9F0EB851882851983F07489
:100CA000031207D4ECF0A3EDF0EAFF7E0074051206
:100CB00007D4EAF074031207D4E0640C7002A3E0D6
:100CC0007018851882851983E075F00CA4F8A9F0D6
:100CD00074A128F516742039802A74031207D4E011
:100CE00064107002A3E0701E851882851983E0F5F8
:100CF000088E097404780812077574312508F516F2
:100D0000741A3509F517851882851983E4F0740380
:100D10001207D4E0FCA3E0C313FDEC13FC802274A3
:100D2000051207D4E0FF74021207D4E00412150F75
:100D300004F0851682851783A38582168583177E26
:100D400000851882851983E0C39CE49D4003020E50
:100D50000674011207D4E4F074021207D4120E4D87
:100D6000740A1207D478081206F88011E50CF4F81A
:100D7000E058F00E0F74011207D4E004F074011271
:100D800007D4E0FA74031207D4120E5C5091740871
:100D90006E700F7E00851682851783A38582168567
:100DA0008317851682851783E493FA750880750981
:100DB00000EE7808120765120E25400575080180BF
:100DC00003750800EFF50C740A1207D412071F749C
:100DD000061207D412072B120E0B120775A81488DF
:100DE0000C74077810120775851014851115740698
:100DF0001207D478101206E9120E327003020D6C3D
:100E0000E0450C020D72740E021518E50C13131355
:100E1000541FF88810751100751401751500E50C44
:100E20005407781422EA5508C3940195E0C365D0AD
:100E30003322120E412514F582E93515F583E508B4
:100E40002274D92510F874033511F9E822120E51D5
:100E500022E0F508E4F509F50AF50B22121541C365
:100E6000EA98E4992274E91207EE74F5120788747F
:100E7000091207D4E4F0A3F074071207D4E4F0A336
:100E8000F074221207D412101E74241207D4121008
:100E9000318A168B178C148D15121002400C7405B4
:100EA0001207D47401F0A3E4800CEE4F700B7405AC
:100EB0001207D4E4F0A3F0800874051207D41210CE
:100EC0005412100B400C74031207D47401F0A3E405
:100ED000800EE5084509700B74031207D4E4F0A3F3
:100EE000F0800874031207D4121065120FF58518EC
:100EF000828519835006EEF0A3EF8006E508F0A383
:100F0000E509F074021207D4E4F074261207D4E065
:100F1000F510A3E0120FDB85188285198312155294
:100F2000020FC9781012089485140CE515121526C5
:100F3000120894AA16E5171215A7120AE2740812ED
:100F4000079E74091207D4120FE2F08518828519E2
:100F500083C082C08374091207D412153DD083D098
:100F600082120FE9502012153774091207D4C3E01A
:100F700098F0A3E099F074051207D4E02516F51651
:100F8000A3E03517F51774071207D4121027851838
:100F900082851983C082C08374071207D412153D5D
:100FA000D083D082120FE950181215377407120738
:100FB000D4C3E098F0A3E099F074031207D41210A0
:100FC0003C74021207D4E004F074021207D4121029
:100FD000484003020F23740B021518F51133121544
:100FE000B122E02EF0A3E03F22C3E098A3E099A253
:100FF000D265D03322C3E5089EE5099FA2D265D011
:101000003322C3EE9401EF12101622C3E5089401B7
:10101000E509121016229400A2D265D03322E0C353
:101020009AFEA3E09BFF22E02508F0A3E03509F03B
:1010300022E0C39CF508A3E09DF50922E02514F504
:1010400014A3E03515F51522E0F8C3E50A98E50B81
:101050001210162274FFF0A3F0C3E49EF8E49FF987
:10106000E8FEE9FF2274FFF0A3F0C3E49508F8E47A
:101070009509F9880889092274E91207EE74E712C4
:10108000078874051207D4E9F074011207D4EAF056
:1010900074031207D4EBF074061207D4ECF0740456
:1010A0001207D4EDF074031207D4E0851882851975
:1010B00083F074021207D4E4F0740F1207D474FFA3
:1010C000F0A3F074171207D474FFF0A3F0740312A6
:1010D00007D4E025E0F8E433F9740198F8E499F9CD
:1010E000740D1207D412159E74151207D47401F0F2
:1010F000A3E4F0740B1207D4E4F0A3F07403120716
:10110000D4E060030214B974061207D41215201239
:10111000089474051207D4E0F5087808120894744E
:101120000D1207D4E0FAE4FBFCFD120AE274081287
:10113000079E0214C9740F1207D4C082C083851899
:1011400082851983E0F8D083D082E0687002A3E042
:10115000701F74171207D4C082C08374021207D4A0
:10116000E0F8D083D082E0687002A3E0700302143C
:101170005274031207D4E0C3940250030212457460
:10118000041207D4E064027003021245740F1207C0
:10119000D4C082C083851882851983E0F8D083D0BB
:1011A00082E0687002A3E070030212457402120725
:1011B000D4E0F51074011207D4E0C39510F895E05F
:1011C000F9E82401F50CE439F50D1214CD1215B827
:1011D00074051207D4E0F5081214E374041207D45E
:1011E0001214DA120898780E1208988A108B117867
:1011F00010120898AC0CAD0D120E65740612079E05
:10120000851882851983E0F8E50828FEE43400FF9C
:10121000780A120898780E1208988E088F097808B4
:10122000120898AC0CAD0DEEFAEFFB120E657406C9
:1012300012079E851882851983E0F8740F1207D46F
:10124000E8F0A3E4F074011207D41214F4C39AF87E
:1012500095E0F974131207D412159E74131207D473
:10126000E02401FEA3E03400FF74011207D412143D
:10127000F42AF8E43400F974111207D412159E749C
:10128000111207D4E024FFF50CA3E034FFF50D7430
:10129000051207D4E0F50874021207D4E0F510E552
:1012A00008C39510F895E0F974091207D412159E39
:1012B00074041207D41214DA120898780C120898E1
:1012C000740D1207D41208ADEEFCEFFD740F120777
:1012D000D4121547120E65740612079EE508121403
:1012E000D3F974071207D412159E780A1208987859
:1012F0000C120898740B1207D41208ADEEFCEFFD27
:10130000740D1207D4121547120E65740612079E4B
:1013100074171207D4E510F0A3E412150FF8E508CE
:1013200028FEE43400FF74011207D41214CD88148F
:10133000891575160075170074061207D4E0F88831
:101340000C750D00750E00750F00780C120894785E
:10135000141208941215A4120AE2740812079E12BD
:1013600014E3EAF8EBF995E0FAFB880889098A0AA0
:101370008B0B780C1208947814120894AA08AB0905
:10138000AC0AAD0B120AE2740812079E7401120730
:10139000D4E0C39510F895E08810F511120FDE78AF
:1013A0000C1208947810120894AA08AB09AC0AAD84
:1013B0000B120AE2740812079E780C120894781037
:1013C0001208941215A4120AE2740812079E7407F8
:1013D0001207D412157F74111207D41214FA1208CE
:1013E000947810120894AA08AB09AC0AAD0B120A43
:1013F000E2740812079E74091207D412156C780C57
:101400001208947810120894AA14AB15AC16AD17F4
:10141000120AE2740812079E74131207D41214FA07
:101420001208947810120894AA14AB15AC16AD17D4
:10143000120AE2740812079E780C120894781012AF
:101440000894AA08AB09AC0AAD0B120AE2740812A0
:10145000079E74021207D4E004F074151207D41228
:10146000153D740B1207D4E028F0A3E039F0741591
:101470001207D4121505740B1207D412155E740DE1
:101480001207D4E028F8A3E039F9C3E89401E9127F
:1014900010164025851882851983E014F0740D120A
:1014A00007D412153D740B1207D4E028F0A3E039DD
:1014B000F0740D1207D412150574021207D4121518
:1014C0002AE0C39840030211357419804BE01214CE
:1014D000D3F9222510F8E4340022E0F50A750B0058
:1014E000780A22851882851983E0F8E508C398FAFE
:1014F00095E0FB2212154DFAE822E0F510A3E01268
:1015000015AE780C22E02402F0A3E03400F022F0C3
:10151000851882851983E02212079E7F10020854E5
:10152000120E517808221215922212152E22E0F87E
:1015300085188285198322851882851983121541A1
:1015400022E0F8A3E0F922E0FAA3E0FB2212152E34
:10155000E022E02401F50AA3E03400F50B22121585
:101560006222121541E828F8E933F922E0F514A3C4
:10157000E012157522F5153395E0F516F51722E002
:10158000F508A3E012158822F5093395E0F50AF570
:101590000B22F50D3395E0F50EF50F780C22E8F0EF
:1015A000A3E9F022EEFAEFFB3395E0FCFD22F51102
:1015B0003395E0F512F51322E824FFF50EE934FF28
:1015C000F50F2274F11207EE7A1D79011218A77C2B
:1015D00000EC75F00584E5F06003021681EC940FD1
:1015E000500F741EC39CF5087800EC702E780480B0
:1015F0002AECC3941E50068C087801801EECC3941C
:101600002D500A743CC39CF5087802800E74E22CBD
:10161000F5087803742D6C70027805AA08EA2AFA96
:10162000E433FB74402AF58274033BF583E0FAA3AC
:10163000E0FBEAF9EBFAE8602524FE601A1460107A
:1016400014600814701D74C829801074C82B80128F
:101650007444C399F980077444C399F98005743EB2
:10166000C39AFAEAFBE9FA75F005EC8425E0F8E4A0
:1016700033F974BE28F582740339F583EAF0A3EBDD
:10168000F00CECC3943C50030215D17A1C79011282
:1016900018A77A1B79021218A77A1279031218A7D1
:1016A0007EBE7F038E828F83E0FAA3E0FB9003402F
:1016B0001208A9EBF8880CE4F50DF50EF50F780C7F
:1016C000120894E4FBFCFD120AE2740812079EEE75
:1016D0002402FE50010F64D67003EF640370C57FCF
:1016E00008020854C082C0839003D674031208B164
:1016F0007900121723740312079E851882851983B7
:1017000074031208B17901121723740312079E851E
:1017100018828519837CD67D037403120744D08315
:10172000D0822274F51207EE74FE120788E9FE7467
:101730000F1207D4E0C3940D4004E024F4F0EE60EF
:101740004E7C0C7D007B317A02791D120C867C0C5C
:101750007D007B327A027922120C867C0C7D007B24
:10176000367A327920120C867C0C7D007B337A1914
:10177000793A120C867C0C7D007B397A1979051236
:101780000C867D017C017B027A1F7922121078740D
:101790000E1207D4E0FFA818A9198808890978084B
:1017A00012089874031207E67A0375F00CEF84F8B8
:1017B00075F00574111207D4E0A428F9121B2B74DC
:1017C0000212079EEEF50875090078081208987451
:1017D000021207D412189E12089874051207D4E05A
:1017E000F50A780A1208987C1F7D007A227B001285
:1017F0000E65740612079EA818A919880A890B7825
:101800000A12089874031207E67A02EFF9121B2BEA
:10181000740212079E780812089874021207D412F4
:10182000189E12089874051207D4E0F50A780A1277
:1018300008987C1F7D007A227B00120E65740612C8
:10184000079EA818A919880A890B780A12089874A3
:10185000031207E67A01740F1207D4E0F9121B2B6A
:10186000740212079E780812089874021207D4E0D6
:10187000F508780812089874051207D4E0F508787E
:10188000081208987C1F7D007A227B00120E657476
:101890000612079E740212079E7F04020854E0F5A8
:1018A0000A750B00780A2274E91207EE74EA12072F
:1018B0008874011207D4E9F0EA851882851983F04B
:1018C000120C727D007C01E0FB7A1F7922121078E5
:1018D00074011207D4E014600814600B14600E80C9
:1018E000107E5E7F03800A7E7E7F0380047E9E7F63
:1018F00003EEF8EFF974061207D4121B231207D473
:101900007400F0A37403F0851882851983E0F8242D
:101910001FFAE43400FB74081207D4EAF0A3EBF0DA
:10192000E82422FEE43400FF74041207D4E0F8A394
:10193000E0F583888278081206E978081200DC74E2
:10194000121207D478081206F87510AB75112575B8
:10195000126975134E8518828519837421021A5BEA
:1019600074011207D4E0F50CE4F50DF50EF50F78CF
:101970000C12089474121207D4120707120B677422
:101980000412079EEA4B4C4D7003021A2CE5082402
:10199000E1F50CE434FFF50D3395E0F50EF50F7825
:1019A0000C1200C190034478081206E9780C7908FB
:1019B00012022C740A1207D478081206E9780C79FE
:1019C000081203AC90034878081206E9780C7908ED
:1019D0001201E05006E50FB2E7F50F8510088511FA
:1019E0000985120A85130B7808790C1203AC900351
:1019F0004078141206E978087914120191502D8567
:101A00000C10850D11850E12850F1385188285190E
:101A100083E0C0E074031207D4D0E0F07401120731
:101A2000D4E0C0E074021207D4D0E0F074011207D1
:101A3000D4E004F074011207D4E0F508740812072A
:101A4000D4C3E09508A3E09400A2D265D03340034C
:101A5000021960851882851983E004F0E0F8C3EE6E
:101A600098EF9400C365D033405174011207D474C9
:101A70001EF0E824DEF508E434FFF5093395E0F5BF
:101A80000AF50B78081200C174121207D4780C12F0
:101A900006E97808790C12022C740A1207D4780827
:101AA0001206F8851882851983E0FA740E1207D49D
:101AB000EAF0A3E4F0A3F0A3021A3374021207D4ED
:101AC000E0F974031207D4E0F874061207D4E0FAC0
:101AD000A3E0F5838A82121B231207D4E02404F8C2
:101AE000A3E03400F974041207D4E8F0A3E9F07419
:101AF000061207D4E02402F8A3E03400F9740612B9
:101B000007D4121B231207D4E064407004A3E064DE
:101B1000036003021928120C72741612079E7F10BC
:101B2000020854E8F0A3E9F074042274F51207EEF9
:101B3000890BECFEEDFF7900EA14600814600F14C5
:101B40006016801C75825E758303791C8012758215
:101B50007E758303791B800875829E7583037912D5
:101B60007A00E50BC3940F5010741EC3950BFC78DC
:101B700000E50B703878048034E50BC3941E5006E2
:101B8000AC0B78018027E50BC3942D500A743CC33D
:101B9000950BFC78028016E50BC3943C501174E25F
:101BA000250BFC7803742D650B70027805ECFAEABE
:101BB00025E0FAE433FBE5822AFAE5833BFBEA24DD
:101BC000E2FAEB34FFFB8A828B83E08E828F83F014
:101BD000740B1207D4E0F508A3E0F5098A828B8321
:101BE000A3E0850882850983F0E8602A24FE600B63
:101BF00014601214602614602980338E828F83E073
:101C0000F8744480268E828F83E0F87444C398F081
:101C1000850882850983E0F8743E800FE9C333F8B4
:101C20008008E9C333F88E828F83E0C398F00218EE
:101C3000990000000000000000000000000000000B
:101C4000000000000000001FCC000C00000000009D
:101C50000000000800300060000800300060000054
:101C600000022003FC1E20022003FC1E2002200094
:101C70000000000E1811043FFF10840C78000000D3
:101C8000000F0010840F3800C00778188400780017
:101C90000000780F8410C411240E9800E400840022
:101CA000080800680070000000000000000000004C
:101CB0000000000000000007E018182004400200A7
:101CC00000000040022004181807E0000000000097
:101CD000000240024001800FF001800240024000FB
:101CE000000080008000800FF800800080008000ED
:101CF000000001000D000E000000000000000000C8
:101D000000000000800080008000800080008000D3
:101D1000800000000C000C0000000000000000002B
:101D20000000000006001800600180060018002076
:101D300000000007F0080810041004080807F0006D
:101D4000000000080408041FFC0004000400000058
:101D50000000000E0C10141024104411840E0C000E
:101D60000000000C1810041104110412880C7000FB
:101D700000000000E00320042408241FFC002400CD
:101D80000000001F981084110411041088107000C6
:101D900000000007F0088811041104188800700082
:101DA0000000001C00100010FC13001C00100000BC
:101DB0000000000E3811441084108411440E3800C5
:101DC0000000000700088C10441044088807F00049
:101DD00000000000000000030C030C0000000000E5
:101DE00000000000000001010600000000000000EB
:101DF00000000000800140022004100808100400C8
:101E000000022002200220022002200220022000E4
:101E100000000010040808041002200140008000A7
:101E20000000000E001200100C106C10800F00005B
:101E30000003E00C1813E4142417C4082807D0008A
:101E4000000004003C03C41C40074000E4001C00E8
:101E50000410041FFC1104110411040E880070000A
:101E60000003E00C1810041004100410081C1000EB
:101E70000010041FFC100410041004080807F000F0
:101E80000010041FFC1104110417C41004081800EA
:101E90000010041FFC1104110017C01000080000FE
:101EA0000003E00C181004100410441C78004000DB
:101EB0000010041FFC10840080008010841FFC10A0
:101EC000040000100410041FFC10041004000000A3
:101ED0000000030001100110011FFE10001000009F
:101EE0000010041FFC110403801464181C1004006B
:101EF0000010041FFC1004000400040004000C0087
:101F00000010041FFC1F0000FC1F001FFC10040039
:101F10000010041FFC0C04030000E010181FFC104C
:101F20000007F00808100410041004080807F00067
:101F30000010041FFC10841080108010800F00001F
:101F40000007F0081810241024101C080A07F200DB
:101F50000010041FFC1104110011C011300E0C0000
:101F60000400000E1C11041084108410441C38005E
:101F7000001800100010041FFC10041000180000CE
:101F80000010001FF810040004000410041FF810D3
:101F90000010001E0011E0001C007013801C0010D7
:101FA000001FC0103C00E01F0000E0103C1FC000FC
:101FB000001004180C163401C001C01634180C109F
:101FC0000410001C00130400FC13041C001000008B
:101FD000000804101C1064108413041C0410180062
:101FE000000000000000007FFE40024002400200AE
:101FF00000000030000C0003800060001C000300A3
:102000000000004002400240027FFE00000000008D
:1020100000000000002000400040004000200000C0
:1020200000000100010001000100010001000100A9
:1020300001000040004000200000000000000000FF
:102040000000000098012401440144014400FC0008
:102050000410001FFC0088010401040088007000C7
:1020600000000000700088010401040104008800E1
:10207000000000007000880104010411081FFC002A
:1020800004000000F8014401440144014400C80078
:10209000000000010401040FFC11041104110018D8
:1020A00000000000D601290129012901C90106000B
:1020B0000010041FFC008401000100010400FC006A
:1020C0000400000104190419FC00040004000000CD
:1020D000000000000300010101190119FE000000C9
:1020E0000010041FFC0024004001B4010C01040096
:1020F000000000100410041FFC0004000400000095
:1021000000010401FC0104010001FC0104010000C4
:10211000FC010401FC008401000100010400FC003A
:1021200004000000F8010401040104010400F800A7
:1021300000010101FF008501040104008800700016
:102140000000000070008801040104010501FF0087
:10215000010104010401FC0084010401000180006C
:1021600000000000CC012401240124012401980076
:102170000000000100010007F80104010400000054
:1021800000010001F8000400040004010801FC0043
:1021900004010001800170000C0010016001800149
:1021A0000001F0010C003001C00030010C01F00111
:1021B0000000000104018C00740170018C01040016
:1021C00000010101810171000E0018016001800110
:1021D0000000000184010C013401440184010C0061
:1021E00000000000000000000001003EFC40024032
:1021F000020000000000000000FFFF0000000000DF
:10220000000000400240023EFC010000000000000F
:10221000000000600080008000400040002000209E
:1022200000000000000000000000000000000000AE
:10223000003F40000000000000000030004000307F
:10224000004000000009000BC03D000BC03D00092C
:102250000018C024407FE022403180000018002494
:10226000C01B000D803240018003801C4027401CB1
:1022700080074000401000600000000000000000E7
:10228000000000000000001F8020404020000040AF
:102290002020401F8000000000090006001F80066B
:1022A0000009000000040004003F80040004000056
:1022B00000001000600000000000000000040004A6
:1022C00000040004000400000000000040000000C2
:1022D0000000000000002001C0060038004000009F
:1022E000001F802040204020401F80000000001080
:1022F000403FC000400000000018C02140224024A0
:10230000401840000010802040244024401B8000E2
:102310000002000D0011003FC0014000003C80247D
:102320004024402440238000001F80244024403467
:1023300040038000003000200027C038002000004B
:10234000001B802440244024401B8000001C0022ED
:10235000C0224022401F8000000000000008400012
:102360000000000000000000000460000000000009
:1023700000000004000A001100208040400900090C
:102380000009000900090000000000404020801101
:10239000000A000400180020002340240018000058
:1023A000001F802040274029401F400000004007B8
:1023B000C039000F0001C0004020403FC02440242D
:1023C000401B8000001F80204020402040308000C3
:1023D0000020403FC0204020401F80000020403FA0
:1023E000C024402E4030C0000020403FC024402E7A
:1023F00000300000000F0010802040224033800297
:102400000020403FC0040004003FC0204020402086
:10241000403FC02040204000000060202020203F9E
:10242000C02000200020403FC024400B0030C020CE
:102430004020403FC020400040004000C03FC03C22
:102440000003C03C003FC0000020403FC00C4023C0
:10245000003FC020001F802040204020401F8000FF
:102460000020403FC024402400180000001F8021AD
:1024700040214020E01FA0000020403FC024402613
:102480000019C0004018C024402440224031800080
:1024900000300020403FC020403000000020003FBE
:1024A00080004000403F80200020003E0001C00727
:1024B0000038002000380007C03C0007C03800008A
:1024C00000204039C0060039C020400000200038FC
:1024D0004007C0384020000000304021C02640386E
:1024E0004020C00000000000007FE04020402000AD
:1024F00000000070000C000380004000000000405D
:102500002040207FE000000000000020004000206C
:10251000000000000000100010001000100010006B
:102520001000000000400000000000000000000259
:10253000800540054003C0004020003FC004400427
:102540004003800000000003800440044006400077
:102550000000000380044024403FC000400000030E
:10256000800540054003400000000004401FC024D7
:102570004024402000000002E005500550065004B1
:102580002020403FC00440040003C000400000047D
:102590004027C00040000000000010001004102779
:1025A000E00000000020403FC00140070004C004DC
:1025B00040204020403FC000400040000007C004D1
:1025C0000007C0040003C00000044007C00440042A
:1025D0000003C0004000000380044004400380006A
:1025E00000041007F00450044003800000000003C2
:1025F000800440045007F00010044007C00240046B
:102600000004000000000006400540054004C00032
:1026100000000004001F8004400040000004000788
:10262000800040044007C000400400070004C001CF
:102630008006000400060001C0070001C00600007B
:1026400000044006C0010006C0044000000410075A
:102650001004E00180060004000000044005C006EC
:1026600040044000000000000004007BE040200027
:1026700000000000000000FFF0000000000000402B
:10268000207BE004000000000040008000400020AB
:10269000002000400074F81207EE90FE80E0C2E7D0
:1026A000F07E09D2F0A29530F001B3929512282B5A
:1026B0001EEE70EFE0D2E7F07F01020854C082C046
:1026C0008375BAB090FE8074DEF090FE82E4F01262
:1026D0002695800090FE80E0D2E7F0D083D0822261
:1026E000C082C0837890790190FE82E0A2E6400C1F
:1026F000E824FF18E934FFF9E84970ECE0C2E6800D
:10270000D974E91207EE8914EAFEEBFF8C168D17D7
:1027100090FE817401F01226E0E5141228201226A2
:10272000E0A3E0A2E150030227E374171207D47874
:10273000081206E9E5084509450A450B603B85088E
:102740000C85090D850A0E850B0F8E828F83E01292
:1027500028201226E0A3E0A2E150030227E38E82A4
:102760008F83A3AE82AF83900356780C1206D6E512
:102770000C450D450E450F70D190FE817406F01288
:1027800026E0741B1207D4780C1206E9E50C450DFF
:10279000450E450F607A90FE817401F01226E074B8
:1027A0000145141228201226E0A3E0A2E14034756E
:1027B0001000751100751200751300AE16AF178565
:1027C0000C08850D09850E0A850F0B9003567808B5
:1027D0001206D6780879101200B190FE8150087464
:1027E0000B800679018034740CF01226E090FE878D
:1027F000E08E828F83F090034078101206D68E828E
:102800008F83A3AE82AF83780C79101200B140C3DE
:1028100090FE817406F01226E079007F10020854C1
:1028200090FE86F090FE81740AF022C082C083740C
:10283000FF1207888518828519837407F08518822E
:10284000851983E024FFF8E8C0E0851882851983A4
:10285000D0E0F0E870E7740112079ED083D08222A6
:1028600043A20443CE8053CEDF43CE1043CE084371
:10287000CE0443CD8043CD4053CEFC85CECE43CE57
:10288000402253CEFC74035942CE2274F11207EE5B
:1028900074131207D478081206E9E5084509450AB9
:1028A000450B603685080C85090D850A0E850B0FD2
:1028B00075CFFFE5CDA2E750FA75CDC0E5CF8C828C
:1028C0008D83F0A3AC82AD83900356780C1206D6AC
:1028D000E50C450D450E450F70D6740F1207D478E0
:1028E000081206E9E5084509450A450B60358508E3
:1028F0000C85090D850A0E850B0F8A828B83E0F506
:10290000CFE5CDA2E750FA75CDC0E5CFA3AA82AB43
:1029100083900356780C1206D6E50C450D450E45FE
:102920000F70D77F08020854C082C08374FE12075C
:102930008890034CAC18AD197402120744900348F8
:102940001208A990034E1208A97C007D0074081299
:1029500007DE79D0122701740812079E740212074D
:102960009ED083D0822274F71207EE74FE1207887D
:1029700074011207D4E4F0EAFEEBFFEE2407F50839
:10298000E43FF5099003401208A99003401208A9FA
:1029900074081207E674091207DE79D01227017451
:1029A0000812079EE960047901803585188285192F
:1029B00083E0540FF875F00AE0C4540FA4288E8207
:1029C0008F83F074011207D4E004F08E828F83A30A
:1029D000AE82AF83E5086E7003E5096F70A67900DB
:1029E000740212079E7F0202085474F6120788755B
:1029F00081801228601226BD120926120C5B121566
:102A0000C31229287AC87B00122A6274031207DED7
:102A100012296674031207D4E06E60E87405120789
:102A2000D4E0C0E074021207D4D0E0F074041207BE
:102A3000D4E0C0E074011207D4D0E0F074031207B0
:102A4000D4E0851882851983F074031208B1121638
:102A5000E4740312079E120BEB74031207D4E0FE1A
:102A600080A278007900C3E89AE99B50137D107C1E
:102A70008C1CEC70FC1DED70F808E870E90980E62C
:012A80002233
:00004401BB
:00000001FF
